{
  "contractName": "DappTokenCrowdSale",
  "abi": [
    {
      "inputs": [
        {
          "internalType": "uint256",
          "name": "rate",
          "type": "uint256"
        },
        {
          "internalType": "address payable",
          "name": "wallet",
          "type": "address"
        },
        {
          "internalType": "contract IERC20",
          "name": "token",
          "type": "address"
        },
        {
          "internalType": "uint256",
          "name": "cap",
          "type": "uint256"
        },
        {
          "internalType": "uint256",
          "name": "_openingTime",
          "type": "uint256"
        },
        {
          "internalType": "uint256",
          "name": "_closingTime",
          "type": "uint256"
        }
      ],
      "payable": false,
      "stateMutability": "nonpayable",
      "type": "constructor"
    },
    {
      "anonymous": false,
      "inputs": [
        {
          "indexed": false,
          "internalType": "uint256",
          "name": "prevClosingTime",
          "type": "uint256"
        },
        {
          "indexed": false,
          "internalType": "uint256",
          "name": "newClosingTime",
          "type": "uint256"
        }
      ],
      "name": "TimedCrowdsaleExtended",
      "type": "event"
    },
    {
      "anonymous": false,
      "inputs": [
        {
          "indexed": true,
          "internalType": "address",
          "name": "purchaser",
          "type": "address"
        },
        {
          "indexed": true,
          "internalType": "address",
          "name": "beneficiary",
          "type": "address"
        },
        {
          "indexed": false,
          "internalType": "uint256",
          "name": "value",
          "type": "uint256"
        },
        {
          "indexed": false,
          "internalType": "uint256",
          "name": "amount",
          "type": "uint256"
        }
      ],
      "name": "TokensPurchased",
      "type": "event"
    },
    {
      "anonymous": false,
      "inputs": [
        {
          "indexed": true,
          "internalType": "address",
          "name": "account",
          "type": "address"
        }
      ],
      "name": "WhitelistAdminAdded",
      "type": "event"
    },
    {
      "anonymous": false,
      "inputs": [
        {
          "indexed": true,
          "internalType": "address",
          "name": "account",
          "type": "address"
        }
      ],
      "name": "WhitelistAdminRemoved",
      "type": "event"
    },
    {
      "anonymous": false,
      "inputs": [
        {
          "indexed": true,
          "internalType": "address",
          "name": "account",
          "type": "address"
        }
      ],
      "name": "WhitelistedAdded",
      "type": "event"
    },
    {
      "anonymous": false,
      "inputs": [
        {
          "indexed": true,
          "internalType": "address",
          "name": "account",
          "type": "address"
        }
      ],
      "name": "WhitelistedRemoved",
      "type": "event"
    },
    {
      "payable": true,
      "stateMutability": "payable",
      "type": "fallback"
    },
    {
      "constant": false,
      "inputs": [
        {
          "internalType": "address",
          "name": "account",
          "type": "address"
        }
      ],
      "name": "addWhitelistAdmin",
      "outputs": [],
      "payable": false,
      "stateMutability": "nonpayable",
      "type": "function"
    },
    {
      "constant": false,
      "inputs": [
        {
          "internalType": "address",
          "name": "account",
          "type": "address"
        }
      ],
      "name": "addWhitelisted",
      "outputs": [],
      "payable": false,
      "stateMutability": "nonpayable",
      "type": "function"
    },
    {
      "constant": false,
      "inputs": [
        {
          "internalType": "address",
          "name": "beneficiary",
          "type": "address"
        }
      ],
      "name": "buyTokens",
      "outputs": [],
      "payable": true,
      "stateMutability": "payable",
      "type": "function"
    },
    {
      "constant": true,
      "inputs": [],
      "name": "cap",
      "outputs": [
        {
          "internalType": "uint256",
          "name": "",
          "type": "uint256"
        }
      ],
      "payable": false,
      "stateMutability": "view",
      "type": "function"
    },
    {
      "constant": true,
      "inputs": [],
      "name": "capReached",
      "outputs": [
        {
          "internalType": "bool",
          "name": "",
          "type": "bool"
        }
      ],
      "payable": false,
      "stateMutability": "view",
      "type": "function"
    },
    {
      "constant": true,
      "inputs": [],
      "name": "closingTime",
      "outputs": [
        {
          "internalType": "uint256",
          "name": "",
          "type": "uint256"
        }
      ],
      "payable": false,
      "stateMutability": "view",
      "type": "function"
    },
    {
      "constant": true,
      "inputs": [
        {
          "internalType": "address",
          "name": "",
          "type": "address"
        }
      ],
      "name": "contributions",
      "outputs": [
        {
          "internalType": "uint256",
          "name": "",
          "type": "uint256"
        }
      ],
      "payable": false,
      "stateMutability": "view",
      "type": "function"
    },
    {
      "constant": true,
      "inputs": [],
      "name": "hasClosed",
      "outputs": [
        {
          "internalType": "bool",
          "name": "",
          "type": "bool"
        }
      ],
      "payable": false,
      "stateMutability": "view",
      "type": "function"
    },
    {
      "constant": true,
      "inputs": [],
      "name": "isOpen",
      "outputs": [
        {
          "internalType": "bool",
          "name": "",
          "type": "bool"
        }
      ],
      "payable": false,
      "stateMutability": "view",
      "type": "function"
    },
    {
      "constant": true,
      "inputs": [
        {
          "internalType": "address",
          "name": "account",
          "type": "address"
        }
      ],
      "name": "isWhitelistAdmin",
      "outputs": [
        {
          "internalType": "bool",
          "name": "",
          "type": "bool"
        }
      ],
      "payable": false,
      "stateMutability": "view",
      "type": "function"
    },
    {
      "constant": true,
      "inputs": [
        {
          "internalType": "address",
          "name": "account",
          "type": "address"
        }
      ],
      "name": "isWhitelisted",
      "outputs": [
        {
          "internalType": "bool",
          "name": "",
          "type": "bool"
        }
      ],
      "payable": false,
      "stateMutability": "view",
      "type": "function"
    },
    {
      "constant": true,
      "inputs": [],
      "name": "openingTime",
      "outputs": [
        {
          "internalType": "uint256",
          "name": "",
          "type": "uint256"
        }
      ],
      "payable": false,
      "stateMutability": "view",
      "type": "function"
    },
    {
      "constant": true,
      "inputs": [],
      "name": "rate",
      "outputs": [
        {
          "internalType": "uint256",
          "name": "",
          "type": "uint256"
        }
      ],
      "payable": false,
      "stateMutability": "view",
      "type": "function"
    },
    {
      "constant": false,
      "inputs": [
        {
          "internalType": "address",
          "name": "account",
          "type": "address"
        }
      ],
      "name": "removeWhitelisted",
      "outputs": [],
      "payable": false,
      "stateMutability": "nonpayable",
      "type": "function"
    },
    {
      "constant": false,
      "inputs": [],
      "name": "renounceWhitelistAdmin",
      "outputs": [],
      "payable": false,
      "stateMutability": "nonpayable",
      "type": "function"
    },
    {
      "constant": false,
      "inputs": [],
      "name": "renounceWhitelisted",
      "outputs": [],
      "payable": false,
      "stateMutability": "nonpayable",
      "type": "function"
    },
    {
      "constant": true,
      "inputs": [],
      "name": "stage",
      "outputs": [
        {
          "internalType": "enum DappTokenCrowdSale.CrowdsaleStage",
          "name": "",
          "type": "uint8"
        }
      ],
      "payable": false,
      "stateMutability": "view",
      "type": "function"
    },
    {
      "constant": true,
      "inputs": [],
      "name": "token",
      "outputs": [
        {
          "internalType": "contract IERC20",
          "name": "",
          "type": "address"
        }
      ],
      "payable": false,
      "stateMutability": "view",
      "type": "function"
    },
    {
      "constant": true,
      "inputs": [],
      "name": "wallet",
      "outputs": [
        {
          "internalType": "address payable",
          "name": "",
          "type": "address"
        }
      ],
      "payable": false,
      "stateMutability": "view",
      "type": "function"
    },
    {
      "constant": true,
      "inputs": [],
      "name": "weiRaised",
      "outputs": [
        {
          "internalType": "uint256",
          "name": "",
          "type": "uint256"
        }
      ],
      "payable": false,
      "stateMutability": "view",
      "type": "function"
    },
    {
      "constant": true,
      "inputs": [
        {
          "internalType": "address",
          "name": "_beneficiary",
          "type": "address"
        }
      ],
      "name": "getContributions",
      "outputs": [
        {
          "internalType": "uint256",
          "name": "",
          "type": "uint256"
        }
      ],
      "payable": false,
      "stateMutability": "view",
      "type": "function"
    },
    {
      "constant": false,
      "inputs": [
        {
          "internalType": "uint256",
          "name": "_stage",
          "type": "uint256"
        }
      ],
      "name": "setCrowdsaleStage",
      "outputs": [],
      "payable": false,
      "stateMutability": "nonpayable",
      "type": "function"
    }
  ],
  "bytecode": "0x6080604052671bc16d674ec800006009556802b5e3af16b1880000600a556000600c60006101000a81548160ff021916908360018111156200003d57fe5b02179055503480156200004f57600080fd5b5060405162001e8a38038062001e8a833981810160405260c08110156200007557600080fd5b81019080805190602001909291908051906020019092919080519060200190929190805190602001909291908051906020019092919080519060200190929190505050818184888888620000de620000d26200045c60201b60201c565b6200046460201b60201c565b6001600260006101000a81548160ff0219169083151502179055506000831162000170576040517f08c379a00000000000000000000000000000000000000000000000000000000081526004018080602001828103825260148152602001807f43726f776473616c653a2072617465206973203000000000000000000000000081525060200191505060405180910390fd5b600073ffffffffffffffffffffffffffffffffffffffff168273ffffffffffffffffffffffffffffffffffffffff161415620001f8576040517f08c379a000000000000000000000000000000000000000000000000000000000815260040180806020018281038252602581526020018062001e656025913960400191505060405180910390fd5b600073ffffffffffffffffffffffffffffffffffffffff168173ffffffffffffffffffffffffffffffffffffffff16141562000280576040517f08c379a000000000000000000000000000000000000000000000000000000000815260040180806020018281038252602481526020018062001e1f6024913960400191505060405180910390fd5b8260048190555081600360006101000a81548173ffffffffffffffffffffffffffffffffffffffff021916908373ffffffffffffffffffffffffffffffffffffffff16021790555080600260016101000a81548173ffffffffffffffffffffffffffffffffffffffff021916908373ffffffffffffffffffffffffffffffffffffffff1602179055505050506000811162000383576040517f08c379a00000000000000000000000000000000000000000000000000000000081526004018080602001828103825260198152602001807f43617070656443726f776473616c653a2063617020697320300000000000000081525060200191505060405180910390fd5b806006819055505042821015620003e6576040517f08c379a000000000000000000000000000000000000000000000000000000000815260040180806020018281038252603381526020018062001db56033913960400191505060405180910390fd5b81811162000440576040517f08c379a000000000000000000000000000000000000000000000000000000000815260040180806020018281038252603781526020018062001de86037913960400191505060405180910390fd5b8160078190555080600881905550505050505050505062000689565b600033905090565b6200047f816000620004c560201b620012a01790919060201c565b8073ffffffffffffffffffffffffffffffffffffffff167f22380c05984257a1cb900161c713dd71d39e74820f1aea43bd3f1bdd2096129960405160405180910390a250565b620004d78282620005a960201b60201c565b156200054b576040517f08c379a000000000000000000000000000000000000000000000000000000000815260040180806020018281038252601f8152602001807f526f6c65733a206163636f756e7420616c72656164792068617320726f6c650081525060200191505060405180910390fd5b60018260000160008373ffffffffffffffffffffffffffffffffffffffff1673ffffffffffffffffffffffffffffffffffffffff16815260200190815260200160002060006101000a81548160ff0219169083151502179055505050565b60008073ffffffffffffffffffffffffffffffffffffffff168273ffffffffffffffffffffffffffffffffffffffff16141562000632576040517f08c379a000000000000000000000000000000000000000000000000000000000815260040180806020018281038252602281526020018062001e436022913960400191505060405180910390fd5b8260000160008373ffffffffffffffffffffffffffffffffffffffff1673ffffffffffffffffffffffffffffffffffffffff16815260200190815260200160002060009054906101000a900460ff16905092915050565b61171c80620006996000396000f3fe6080604052600436106101355760003560e01c80634c5a628c116100ab578063b7a8807c1161006f578063b7a8807c1461054f578063bb5f747b1461057a578063c040e6b8146105e3578063d6cd94731461061c578063ec8ac4d814610633578063fc0c546a1461067757610135565b80634c5a628c146104265780634f9359451461043d578063521eb2731461046c5780637362d9c8146104c3578063a997f82f1461051457610135565b80633af32abf116100fd5780633af32abf1461026e5780633f19d043146102d75780634042b66f1461033c57806342e94c901461036757806347535d7b146103cc5780634b6753bc146103fb57610135565b806310154bad146101475780631515bc2b14610198578063291d9549146101c75780632c4e722e14610218578063355274ea14610243575b6101456101406106ce565b6106d6565b005b34801561015357600080fd5b506101966004803603602081101561016a57600080fd5b81019080803573ffffffffffffffffffffffffffffffffffffffff169060200190929190505050610864565b005b3480156101a457600080fd5b506101ad6108d5565b604051808215151515815260200191505060405180910390f35b3480156101d357600080fd5b50610216600480360360208110156101ea57600080fd5b81019080803573ffffffffffffffffffffffffffffffffffffffff1690602001909291905050506108e1565b005b34801561022457600080fd5b5061022d610952565b6040518082815260200191505060405180910390f35b34801561024f57600080fd5b5061025861095c565b6040518082815260200191505060405180910390f35b34801561027a57600080fd5b506102bd6004803603602081101561029157600080fd5b81019080803573ffffffffffffffffffffffffffffffffffffffff169060200190929190505050610966565b604051808215151515815260200191505060405180910390f35b3480156102e357600080fd5b50610326600480360360208110156102fa57600080fd5b81019080803573ffffffffffffffffffffffffffffffffffffffff169060200190929190505050610983565b6040518082815260200191505060405180910390f35b34801561034857600080fd5b506103516109cc565b6040518082815260200191505060405180910390f35b34801561037357600080fd5b506103b66004803603602081101561038a57600080fd5b81019080803573ffffffffffffffffffffffffffffffffffffffff1690602001909291905050506109d6565b6040518082815260200191505060405180910390f35b3480156103d857600080fd5b506103e16109ee565b604051808215151515815260200191505060405180910390f35b34801561040757600080fd5b50610410610a09565b6040518082815260200191505060405180910390f35b34801561043257600080fd5b5061043b610a13565b005b34801561044957600080fd5b50610452610a25565b604051808215151515815260200191505060405180910390f35b34801561047857600080fd5b50610481610a39565b604051808273ffffffffffffffffffffffffffffffffffffffff1673ffffffffffffffffffffffffffffffffffffffff16815260200191505060405180910390f35b3480156104cf57600080fd5b50610512600480360360208110156104e657600080fd5b81019080803573ffffffffffffffffffffffffffffffffffffffff169060200190929190505050610a63565b005b34801561052057600080fd5b5061054d6004803603602081101561053757600080fd5b8101908080359060200190929190505050610ad4565b005b34801561055b57600080fd5b50610564610b4a565b6040518082815260200191505060405180910390f35b34801561058657600080fd5b506105c96004803603602081101561059d57600080fd5b81019080803573ffffffffffffffffffffffffffffffffffffffff169060200190929190505050610b54565b604051808215151515815260200191505060405180910390f35b3480156105ef57600080fd5b506105f8610b71565b6040518082600181111561060857fe5b60ff16815260200191505060405180910390f35b34801561062857600080fd5b50610631610b84565b005b6106756004803603602081101561064957600080fd5b81019080803573ffffffffffffffffffffffffffffffffffffffff1690602001909291905050506106d6565b005b34801561068357600080fd5b5061068c610b96565b604051808273ffffffffffffffffffffffffffffffffffffffff1673ffffffffffffffffffffffffffffffffffffffff16815260200191505060405180910390f35b600033905090565b600260009054906101000a900460ff16610758576040517f08c379a000000000000000000000000000000000000000000000000000000000815260040180806020018281038252601f8152602001807f5265656e7472616e637947756172643a207265656e7472616e742063616c6c0081525060200191505060405180910390fd5b6000600260006101000a81548160ff02191690831515021790555060003490506107828282610bc0565b600061078d82610c2c565b90506107a482600554610c4a90919063ffffffff16565b6005819055506107b48382610cd2565b8273ffffffffffffffffffffffffffffffffffffffff166107d36106ce565b73ffffffffffffffffffffffffffffffffffffffff167f6faf93231a456e552dbc9961f58d9713ee4f2e69d15f1975b050ef0911053a7b8484604051808381526020018281526020019250505060405180910390a36108328383610ce0565b61083a610ce4565b6108448383610d9e565b50506001600260006101000a81548160ff02191690831515021790555050565b61087461086f6106ce565b610b54565b6108c9576040517f08c379a000000000000000000000000000000000000000000000000000000000815260040180806020018281038252604081526020018061167e6040913960400191505060405180910390fd5b6108d281610da2565b50565b60006008544211905090565b6108f16108ec6106ce565b610b54565b610946576040517f08c379a000000000000000000000000000000000000000000000000000000000815260040180806020018281038252604081526020018061167e6040913960400191505060405180910390fd5b61094f81610dfc565b50565b6000600454905090565b6000600654905090565b600061097c826001610e5690919063ffffffff16565b9050919050565b6000600b60008373ffffffffffffffffffffffffffffffffffffffff1673ffffffffffffffffffffffffffffffffffffffff168152602001908152602001600020549050919050565b6000600554905090565b600b6020528060005260406000206000915090505481565b60006007544210158015610a0457506008544211155b905090565b6000600854905090565b610a23610a1e6106ce565b610f34565b565b6000600654610a326109cc565b1015905090565b6000600360009054906101000a900473ffffffffffffffffffffffffffffffffffffffff16905090565b610a73610a6e6106ce565b610b54565b610ac8576040517f08c379a000000000000000000000000000000000000000000000000000000000815260040180806020018281038252604081526020018061167e6040913960400191505060405180910390fd5b610ad181610f8e565b50565b8060006001811115610ae257fe5b1415610b1a576000600c60006101000a81548160ff02191690836001811115610b0757fe5b02179055506101f4600481905550610b47565b6001600c60006101000a81548160ff02191690836001811115610b3957fe5b021790555060fa6004819055505b50565b6000600754905090565b6000610b6a826000610e5690919063ffffffff16565b9050919050565b600c60009054906101000a900460ff1681565b610b94610b8f6106ce565b610dfc565b565b6000600260019054906101000a900473ffffffffffffffffffffffffffffffffffffffff16905090565b610bc982610966565b610c1e576040517f08c379a00000000000000000000000000000000000000000000000000000000081526004018080602001828103825260418152602001806115d96041913960600191505060405180910390fd5b610c288282610fe8565b5050565b6000610c436004548361107090919063ffffffff16565b9050919050565b600080828401905083811015610cc8576040517f08c379a000000000000000000000000000000000000000000000000000000000815260040180806020018281038252601b8152602001807f536166654d6174683a206164646974696f6e206f766572666c6f77000000000081525060200191505060405180910390fd5b8091505092915050565b610cdc82826110f6565b5050565b5050565b60006001811115610cf157fe5b600c60009054906101000a900460ff166001811115610d0c57fe5b1415610d6557610d1a610a39565b73ffffffffffffffffffffffffffffffffffffffff166108fc349081150290604051600060405180830381858888f19350505050158015610d5f573d6000803e3d6000fd5b50610d9c565b600180811115610d7157fe5b600c60009054906101000a900460ff166001811115610d8c57fe5b1415610d9b57610d9a611235565b5b5b565b5050565b610db68160016112a090919063ffffffff16565b8073ffffffffffffffffffffffffffffffffffffffff167fee1504a83b6d4a361f4c1dc78ab59bfa30d6a3b6612c403e86bb01ef2984295f60405160405180910390a250565b610e1081600161137b90919063ffffffff16565b8073ffffffffffffffffffffffffffffffffffffffff167f270d9b30cf5b0793bbfd54c9d5b94aeb49462b8148399000265144a8722da6b660405160405180910390a250565b60008073ffffffffffffffffffffffffffffffffffffffff168273ffffffffffffffffffffffffffffffffffffffff161415610edd576040517f08c379a000000000000000000000000000000000000000000000000000000000815260040180806020018281038252602281526020018061165c6022913960400191505060405180910390fd5b8260000160008373ffffffffffffffffffffffffffffffffffffffff1673ffffffffffffffffffffffffffffffffffffffff16815260200190815260200160002060009054906101000a900460ff16905092915050565b610f4881600061137b90919063ffffffff16565b8073ffffffffffffffffffffffffffffffffffffffff167f0a8eb35e5ca14b3d6f28e4abf2f128dbab231a58b56e89beb5d636115001e16560405160405180910390a250565b610fa28160006112a090919063ffffffff16565b8073ffffffffffffffffffffffffffffffffffffffff167f22380c05984257a1cb900161c713dd71d39e74820f1aea43bd3f1bdd2096129960405160405180910390a250565b610ff06109ee565b611062576040517f08c379a00000000000000000000000000000000000000000000000000000000081526004018080602001828103825260188152602001807f54696d656443726f776473616c653a206e6f74206f70656e000000000000000081525060200191505060405180910390fd5b61106c8282611438565b5050565b60008083141561108357600090506110f0565b600082840290508284828161109457fe5b04146110eb576040517f08c379a000000000000000000000000000000000000000000000000000000000815260040180806020018281038252602181526020018061163b6021913960400191505060405180910390fd5b809150505b92915050565b6110fe610b96565b73ffffffffffffffffffffffffffffffffffffffff166340c10f1983836040518363ffffffff1660e01b8152600401808373ffffffffffffffffffffffffffffffffffffffff1673ffffffffffffffffffffffffffffffffffffffff16815260200182815260200192505050602060405180830381600087803b15801561118457600080fd5b505af1158015611198573d6000803e3d6000fd5b505050506040513d60208110156111ae57600080fd5b8101908080519060200190929190505050611231576040517f08c379a000000000000000000000000000000000000000000000000000000000815260040180806020018281038252601f8152602001807f4d696e74656443726f776473616c653a206d696e74696e67206661696c65640081525060200191505060405180910390fd5b5050565b600360009054906101000a900473ffffffffffffffffffffffffffffffffffffffff1673ffffffffffffffffffffffffffffffffffffffff166108fc349081150290604051600060405180830381858888f1935050505015801561129d573d6000803e3d6000fd5b50565b6112aa8282610e56565b1561131d576040517f08c379a000000000000000000000000000000000000000000000000000000000815260040180806020018281038252601f8152602001807f526f6c65733a206163636f756e7420616c72656164792068617320726f6c650081525060200191505060405180910390fd5b60018260000160008373ffffffffffffffffffffffffffffffffffffffff1673ffffffffffffffffffffffffffffffffffffffff16815260200190815260200160002060006101000a81548160ff0219169083151502179055505050565b6113858282610e56565b6113da576040517f08c379a000000000000000000000000000000000000000000000000000000000815260040180806020018281038252602181526020018061161a6021913960400191505060405180910390fd5b60008260000160008373ffffffffffffffffffffffffffffffffffffffff1673ffffffffffffffffffffffffffffffffffffffff16815260200190815260200160002060006101000a81548160ff0219169083151502179055505050565b61144282826114d7565b60065461145f826114516109cc565b610c4a90919063ffffffff16565b11156114d3576040517f08c379a000000000000000000000000000000000000000000000000000000000815260040180806020018281038252601d8152602001807f43617070656443726f776473616c653a2063617020657863656564656400000081525060200191505060405180910390fd5b5050565b600073ffffffffffffffffffffffffffffffffffffffff168273ffffffffffffffffffffffffffffffffffffffff16141561155d576040517f08c379a000000000000000000000000000000000000000000000000000000000815260040180806020018281038252602a8152602001806116be602a913960400191505060405180910390fd5b60008114156115d4576040517f08c379a00000000000000000000000000000000000000000000000000000000081526004018080602001828103825260198152602001807f43726f776473616c653a20776569416d6f756e7420697320300000000000000081525060200191505060405180910390fd5b505056fe57686974656c69737443726f776473616c653a2062656e656669636961727920646f65736e27742068617665207468652057686974656c697374656420726f6c65526f6c65733a206163636f756e7420646f6573206e6f74206861766520726f6c65536166654d6174683a206d756c7469706c69636174696f6e206f766572666c6f77526f6c65733a206163636f756e7420697320746865207a65726f206164647265737357686974656c69737441646d696e526f6c653a2063616c6c657220646f6573206e6f742068617665207468652057686974656c69737441646d696e20726f6c6543726f776473616c653a2062656e656669636961727920697320746865207a65726f2061646472657373a265627a7a72315820e95d25323b8e11e126ec80e95d3a1c466301d05d6de6a83152e71967a8c7a31a64736f6c634300050c003254696d656443726f776473616c653a206f70656e696e672074696d65206973206265666f72652063757272656e742074696d6554696d656443726f776473616c653a206f70656e696e672074696d65206973206e6f74206265666f726520636c6f73696e672074696d6543726f776473616c653a20746f6b656e20697320746865207a65726f2061646472657373526f6c65733a206163636f756e7420697320746865207a65726f206164647265737343726f776473616c653a2077616c6c657420697320746865207a65726f2061646472657373",
  "source": "pragma solidity ^0.5.1;\r\n\r\nimport \"../node_modules/@openzeppelin/contracts/crowdsale/Crowdsale.sol\";\r\nimport \"../node_modules/@openzeppelin/contracts/token/ERC20/IERC20.sol\";\r\nimport \"../node_modules/@openzeppelin/contracts/crowdsale/emission/MintedCrowdsale.sol\";\r\nimport \"../node_modules/@openzeppelin/contracts/crowdsale/validation/CappedCrowdsale.sol\";\r\nimport \"../node_modules/@openzeppelin/contracts/crowdsale/validation/TimedCrowdsale.sol\";\r\nimport \"../node_modules/@openzeppelin/contracts/crowdsale/validation/WhitelistCrowdsale.sol\";\r\n// import \"../node_modules/@openzeppelin/contracts/crowdsale/distribution/RefundableCrowdsale.sol\";\r\n\r\ncontract DappTokenCrowdSale is Crowdsale,MintedCrowdsale,CappedCrowdsale ,TimedCrowdsale,WhitelistCrowdsale\r\n{\r\n\r\n    // track investors investment\r\n    uint256 private investorMinCap=2000000000000000000;\r\n    uint256 private investorMaxCap=50000000000000000000;\r\n  \r\n    mapping(address=>uint256) public contributions;\r\n\r\n    //keep track of ICO stage\r\n    enum CrowdsaleStage{PreICO,ICO}\r\n    //default to presale stage\r\n    CrowdsaleStage public stage=CrowdsaleStage.PreICO;\r\n\r\n\r\n    constructor(\r\n    uint256 rate,\r\n    address payable wallet,\r\n    IERC20 token,\r\n    uint cap,\r\n    uint _openingTime,\r\n    uint _closingTime\r\n    )\r\n    Crowdsale(rate,wallet,token)\r\n    CappedCrowdsale(cap)\r\n    TimedCrowdsale(_openingTime,_closingTime)\r\n    public{\r\n        // require(_goal <= cap,\" goal exceeds cap\");\r\n    }\r\n\r\n    // get user contributions\r\n\r\n    function getContributions(address _beneficiary) public view returns(uint256){\r\n        return contributions[_beneficiary];\r\n    }\r\n\r\n    //set crowdsale stage\r\n\r\n    function setCrowdsaleStage(uint _stage) public{\r\n        if(uint(CrowdsaleStage.PreICO)==_stage){\r\n            stage = CrowdsaleStage.PreICO;\r\n            //to enable this change of value i have changed _rate from private to internal in crowdsale.sol\r\n            _rate = 500;\r\n        }else{\r\n            stage = CrowdsaleStage.ICO;\r\n           _rate = 250;\r\n        }\r\n\r\n        \r\n    }\r\n\r\n    function _forwardFunds() internal {\r\n        if(stage == CrowdsaleStage.PreICO){\r\n            wallet().transfer(msg.value);\r\n        }else if(stage == CrowdsaleStage.ICO){\r\n            super._forwardFunds();\r\n        }\r\n        \r\n    }\r\n\r\n    function preValidatePurchase(address _beneficiary,uint _weiAmount) internal{\r\n        super._preValidatePurchase(_beneficiary,_weiAmount);\r\n        uint256 _existingContribution = contributions[_beneficiary];\r\n        uint256 _newContribution = _existingContribution + _weiAmount;\r\n        require(_newContribution>=investorMinCap && _newContribution <= investorMaxCap,\"some error happened\");\r\n        contributions[_beneficiary] = _newContribution;\r\n    }\r\n}",
  "sourcePath": "E:/ICO_PROJECT/contracts/DappTokenCrowdSale.sol",
  "compiler": {
    "name": "solc",
    "version": "0.5.12+commit.7709ece9.Emscripten.clang"
  },
  "schemaVersion": "3.0.20",
  "updatedAt": "2020-02-14T06:08:57.311Z",
  "devdoc": {
    "methods": {
      "buyTokens(address)": {
        "details": "low level token purchase ***DO NOT OVERRIDE*** This function has a non-reentrancy guard, so it shouldn't be called by another `nonReentrant` function.",
        "params": {
          "beneficiary": "Recipient of the token purchase"
        }
      },
      "cap()": {
        "return": "the cap of the crowdsale."
      },
      "capReached()": {
        "details": "Checks whether the cap has been reached.",
        "return": "Whether the cap was reached"
      },
      "closingTime()": {
        "return": "the crowdsale closing time."
      },
      "hasClosed()": {
        "details": "Checks whether the period in which the crowdsale is open has already elapsed.",
        "return": "Whether crowdsale period has elapsed"
      },
      "isOpen()": {
        "return": "true if the crowdsale is open, false otherwise."
      },
      "openingTime()": {
        "return": "the crowdsale opening time."
      },
      "rate()": {
        "return": "the number of token units a buyer gets per wei."
      },
      "token()": {
        "return": "the token being sold."
      },
      "wallet()": {
        "return": "the address where funds are collected."
      },
      "weiRaised()": {
        "return": "the amount of wei raised."
      }
    }
  },
  "userdoc": {
    "methods": {}
  }
}